:100000000C9434000C9446000C9446000C9446006A
:100010000C9446000C9446000C9446000C94560137
:100020000C9446000C9446000C9446000C94460038
:100030000C9446000C9446000C9446000C94460028
:100040000C9446000C9446000C94D2000C941701BA
:100050000C9446000C9446000C9446000C94460008
:100060000C9446000C94460011241FBECFEFD8E03C
:10007000DEBFCDBF21E0A0E0B1E001C01D92AA3DEE
:10008000B207E1F70E94B4010C94F7010C94000050
:10009000CF93DF9384E6E9E6F1E0DF01982F1D922C
:1000A0009A95E9F71092CE011092CD011092D001ED
:1000B0001092CF011092D101E0E0F1E0DF011D923A
:1000C0008A95E9F710926501109264011092670118
:1000D0001092660110926801C0ECD0E01882A1EC89
:1000E000B0E01C92E2ECF0E010821092C50083E3D5
:1000F0008093C40088818883888188838C91806AFA
:100100008C938C9188618C938C918C938081866088
:1001100080838081808380818083808180838081CF
:100120008083DF91CF9108952091CF013091D0014C
:100130002436310520F081E08093D10108959FB7E6
:10014000991F9927991FF894ADECB1E0ED91FC91BE
:100150001197E759FE4F8083EFECF1E02081318168
:100160002F5F3F4F318320832D913C912336310502
:1001700029F41092CE011092CD0108C0EDECF1E00F
:10018000208131812F5F3F4F31832083E1ECF0E00C
:10019000808180628083992319F0789480E00895AB
:1001A00080E008951F920F920FB60F9211242F93A3
:1001B0008F939F93AF93BF93EF93FF932091C600CC
:1001C00080916601909167018436910520F081E06D
:1001D0008093680120C0A4E6B1E0ED91FC911197F5
:1001E000E050FF4F2083E6E6F1E0808191810196A7
:1001F000918380838D919C918336910529F410928F
:1002000065011092640107C0E4E6F1E0808191810C
:10021000019691838083FF91EF91BF91AF919F9160
:100220008F912F910F900FBE0F901F9018951F92D6
:100230000F920FB60F9211248F939F93AF93BF939A
:10024000EF93FF938091CF019091D001892BF1F032
:10025000EDECF1E080819181AFECB1E08D919C916A
:1002600011970190F081E02D8D919C911197E81BE1
:10027000F90BE759FE4F80818093C6008D919C91C8
:100280001197019711969C938E9305C0E1ECF0E0D5
:1002900080818F7D8083FF91EF91BF91AF919F917E
:1002A0008F910F900FBE0F901F9018951F920F9275
:1002B0000FB60F9211242F933F934F935F936F9339
:1002C0007F938F939F93AF932091D2013091D3016D
:1002D0004091D4015091D5016091D6017091D70120
:1002E0008091D8019091D901A1E00E94EB01209367
:1002F000D2013093D3014093D4015093D501609340
:10030000D6017093D7018093D8019093D901AF9112
:100310009F918F917F916F915F914F913F912F911D
:100320000F900FBE0F901F901895ECE7F0E08081C2
:1003300080648083EAE7F0E08081876880830895A5
:10034000ECE7F0E090818F70907F892B8083EAE763
:10035000F0E0808180648083808186FDFDCF809184
:10036000780090917900089519B80E9495010E9433
:1003700048007894D8ECC9B1C5FBCC27C0F984E01B
:100380000E94A0017C0185E00E94A0018C0182E115
:100390000E949400DE9D9001DF9D300D1124832F7B
:1003A000869586950E949400D09F9001D19F300D34
:1003B0001124832F869586950E9494008AE50E94D9
:1003C000940084E60E9494008C2F0E94940088E0A0
:1003D0000E949400D0CF0024A7FD00942A0F301D66
:1003E000401D501D601D701D801D901D0895F894C6
:0203F000FFCF3D
:00000001FF
