:100000000C9434000C943E000C943E000C943E0082
:100010000C943E000C943E000C943E000C943E0068
:100020000C943E000C943E000C943E000C943E0058
:100030000C943E000C943E000C943E000C943E0048
:100040000C943E000C943E000C943E000C943E0038
:100050000C943E000C943E000C943E000C943E0028
:100060000C943E000C943E0011241FBECFEFD8E04C
:10007000DEBFCDBF0E9473000C94EB000C94000017
:100080001092C50087E68093C40088E18093C10088
:1000900086E08093C2000895E0ECF0E0908195FF47
:1000A000FDCF8093C6000895ECE7F0E08081806486
:1000B0008083EAE7F0E08081876880830895ECE739
:1000C000F0E090818F70907F892B8083EAE7F0E0E9
:1000D000808180648083808186FDFDCF809178005F
:1000E00090917900089519B80E9454000E94400030
:1000F000C9B184E00E945F007C0185E00E945F003E
:100100008C018EE30E944C008FED9EE20197F1F787
:1001100000C000009701ADECBCEC0E94DC0096959D
:100120008795969587950E944C008FED9EE20197EA
:10013000F1F700C000009801ADECBCEC0E94DC00BF
:1001400096958795969587950E944C008FED9EE237
:100150000197F1F700C000008AE50E944C008FED86
:100160009EE20197F1F700C0000084E60E944C0077
:100170008FED9EE20197F1F700C00000C5FB8827D4
:1001800080F90E944C008FED9EE20197F1F700C0CC
:1001900000008CE30E944C008FED9EE20197F1F786
:1001A00000C000009FEF26E781E091502040804092
:1001B000E1F700C000009CCFA29FB001B39FC00137
:1001C000A39F700D811D1124911DB29F700D811D83
:0A01D0001124911D0895F894FFCF4B
:00000001FF
